{
  "contractName": "Parking",
  "abi": [
    {
      "inputs": [],
      "stateMutability": "nonpayable",
      "type": "constructor"
    },
    {
      "anonymous": false,
      "inputs": [
        {
          "indexed": false,
          "internalType": "uint256",
          "name": "_id",
          "type": "uint256"
        }
      ],
      "name": "ParkingAdded",
      "type": "event"
    },
    {
      "anonymous": false,
      "inputs": [
        {
          "indexed": false,
          "internalType": "uint256",
          "name": "_id",
          "type": "uint256"
        }
      ],
      "name": "ParkingDeleted",
      "type": "event"
    },
    {
      "anonymous": false,
      "inputs": [
        {
          "indexed": false,
          "internalType": "uint256",
          "name": "_id",
          "type": "uint256"
        }
      ],
      "name": "ParkingEdited",
      "type": "event"
    },
    {
      "anonymous": false,
      "inputs": [
        {
          "indexed": false,
          "internalType": "uint256",
          "name": "_id",
          "type": "uint256"
        }
      ],
      "name": "UserAdded",
      "type": "event"
    },
    {
      "anonymous": false,
      "inputs": [
        {
          "indexed": false,
          "internalType": "uint256",
          "name": "_id",
          "type": "uint256"
        }
      ],
      "name": "UserDeleted",
      "type": "event"
    },
    {
      "anonymous": false,
      "inputs": [
        {
          "indexed": false,
          "internalType": "uint256",
          "name": "_id",
          "type": "uint256"
        }
      ],
      "name": "UserEdited",
      "type": "event"
    },
    {
      "inputs": [],
      "name": "ParkingCount",
      "outputs": [
        {
          "internalType": "uint256",
          "name": "",
          "type": "uint256"
        }
      ],
      "stateMutability": "view",
      "type": "function",
      "constant": true
    },
    {
      "inputs": [],
      "name": "UserCount",
      "outputs": [
        {
          "internalType": "uint256",
          "name": "",
          "type": "uint256"
        }
      ],
      "stateMutability": "view",
      "type": "function",
      "constant": true
    },
    {
      "inputs": [
        {
          "internalType": "uint256",
          "name": "",
          "type": "uint256"
        }
      ],
      "name": "parkings",
      "outputs": [
        {
          "internalType": "uint256",
          "name": "id",
          "type": "uint256"
        },
        {
          "internalType": "string",
          "name": "name",
          "type": "string"
        },
        {
          "internalType": "string",
          "name": "location",
          "type": "string"
        },
        {
          "internalType": "string",
          "name": "capacity",
          "type": "string"
        }
      ],
      "stateMutability": "view",
      "type": "function",
      "constant": true
    },
    {
      "inputs": [
        {
          "internalType": "uint256",
          "name": "",
          "type": "uint256"
        }
      ],
      "name": "users",
      "outputs": [
        {
          "internalType": "uint256",
          "name": "id",
          "type": "uint256"
        },
        {
          "internalType": "string",
          "name": "name",
          "type": "string"
        },
        {
          "internalType": "string",
          "name": "password",
          "type": "string"
        },
        {
          "internalType": "string",
          "name": "phone",
          "type": "string"
        }
      ],
      "stateMutability": "view",
      "type": "function",
      "constant": true
    },
    {
      "inputs": [],
      "name": "getUserCount",
      "outputs": [
        {
          "internalType": "uint256",
          "name": "",
          "type": "uint256"
        }
      ],
      "stateMutability": "view",
      "type": "function",
      "constant": true
    },
    {
      "inputs": [
        {
          "internalType": "string",
          "name": "_name",
          "type": "string"
        },
        {
          "internalType": "string",
          "name": "_password",
          "type": "string"
        },
        {
          "internalType": "string",
          "name": "_phone",
          "type": "string"
        }
      ],
      "name": "addUser",
      "outputs": [],
      "stateMutability": "nonpayable",
      "type": "function"
    },
    {
      "inputs": [
        {
          "internalType": "uint256",
          "name": "_id",
          "type": "uint256"
        }
      ],
      "name": "deleteUser",
      "outputs": [],
      "stateMutability": "nonpayable",
      "type": "function"
    },
    {
      "inputs": [
        {
          "internalType": "uint256",
          "name": "_id",
          "type": "uint256"
        },
        {
          "internalType": "string",
          "name": "_name",
          "type": "string"
        },
        {
          "internalType": "string",
          "name": "_password",
          "type": "string"
        },
        {
          "internalType": "string",
          "name": "_phone",
          "type": "string"
        }
      ],
      "name": "editUser",
      "outputs": [],
      "stateMutability": "nonpayable",
      "type": "function"
    },
    {
      "inputs": [],
      "name": "getParkingCount",
      "outputs": [
        {
          "internalType": "uint256",
          "name": "",
          "type": "uint256"
        }
      ],
      "stateMutability": "view",
      "type": "function",
      "constant": true
    },
    {
      "inputs": [
        {
          "internalType": "string",
          "name": "_name",
          "type": "string"
        },
        {
          "internalType": "string",
          "name": "_location",
          "type": "string"
        },
        {
          "internalType": "string",
          "name": "_capacity",
          "type": "string"
        }
      ],
      "name": "addParking",
      "outputs": [],
      "stateMutability": "nonpayable",
      "type": "function"
    },
    {
      "inputs": [
        {
          "internalType": "uint256",
          "name": "_id",
          "type": "uint256"
        }
      ],
      "name": "deleteParking",
      "outputs": [],
      "stateMutability": "nonpayable",
      "type": "function"
    },
    {
      "inputs": [
        {
          "internalType": "uint256",
          "name": "_id",
          "type": "uint256"
        },
        {
          "internalType": "string",
          "name": "_name",
          "type": "string"
        },
        {
          "internalType": "string",
          "name": "_location",
          "type": "string"
        },
        {
          "internalType": "string",
          "name": "_capacity",
          "type": "string"
        }
      ],
      "name": "editParking",
      "outputs": [],
      "stateMutability": "nonpayable",
      "type": "function"
    }
  ],
  "bytecode": "0x608060405234801561001057600080fd5b50600080819055506000600181905550610f988061002f6000396000f3fe608060405234801561001057600080fd5b50600436106100b45760003560e01c806349703bfb1161007157806349703bfb1461019357806359409d47146101af57806369e3b317146101cd57806395c5fed4146101e957806396bacbef14610205578063b5cb15f714610221576100b4565b8063097cbfe5146100b95780630e4dfb24146100ec57806315931724146101085780632e0f0f7614610126578063365b98b21461014457806338f1484514610177575b600080fd5b6100d360048036038101906100ce9190610ce8565b61023f565b6040516100e39493929190610e1f565b60405180910390f35b61010660048036038101906101019190610c51565b610437565b005b610110610523565b60405161011d9190610e04565b60405180910390f35b61012e610529565b60405161013b9190610e04565b60405180910390f35b61015e60048036038101906101599190610ce8565b61052f565b60405161016e9493929190610e1f565b60405180910390f35b610191600480360381019061018c9190610ce8565b610727565b005b6101ad60048036038101906101a89190610d11565b6107c1565b005b6101b7610896565b6040516101c49190610e04565b60405180910390f35b6101e760048036038101906101e29190610d11565b6108a0565b005b61020360048036038101906101fe9190610c51565b610975565b005b61021f600480360381019061021a9190610ce8565b610a5f565b005b610229610afa565b6040516102369190610e04565b60405180910390f35b6003602052806000526040600020600091509050806000015490806001018054600181600116156101000203166002900480601f0160208091040260200160405190810160405280929190818152602001828054600181600116156101000203166002900480156102f15780601f106102c6576101008083540402835291602001916102f1565b820191906000526020600020905b8154815290600101906020018083116102d457829003601f168201915b505050505090806002018054600181600116156101000203166002900480601f01602080910402602001604051908101604052809291908181526020018280546001816001161561010002031660029004801561038f5780601f106103645761010080835404028352916020019161038f565b820191906000526020600020905b81548152906001019060200180831161037257829003601f168201915b505050505090806003018054600181600116156101000203166002900480601f01602080910402602001604051908101604052809291908181526020018280546001816001161561010002031660029004801561042d5780601f106104025761010080835404028352916020019161042d565b820191906000526020600020905b81548152906001019060200180831161041057829003601f168201915b5050505050905084565b6040518060800160405280600154815260200184815260200183815260200182815250600360006001548152602001908152602001600020600082015181600001556020820151816001019080519060200190610495929190610b03565b5060408201518160020190805190602001906104b2929190610b03565b5060608201518160030190805190602001906104cf929190610b03565b509050507f9f014f0a3ab6fcf5673c7c8d68bdb1e8145d7fd0ca84b2bf4fa6da090394bcdf6001546040516105049190610e04565b60405180910390a1600160008154809291906001019190505550505050565b60005481565b60015481565b6002602052806000526040600020600091509050806000015490806001018054600181600116156101000203166002900480601f0160208091040260200160405190810160405280929190818152602001828054600181600116156101000203166002900480156105e15780601f106105b6576101008083540402835291602001916105e1565b820191906000526020600020905b8154815290600101906020018083116105c457829003601f168201915b505050505090806002018054600181600116156101000203166002900480601f01602080910402602001604051908101604052809291908181526020018280546001816001161561010002031660029004801561067f5780601f106106545761010080835404028352916020019161067f565b820191906000526020600020905b81548152906001019060200180831161066257829003601f168201915b505050505090806003018054600181600116156101000203166002900480601f01602080910402602001604051908101604052809291908181526020018280546001816001161561010002031660029004801561071d5780601f106106f25761010080835404028352916020019161071d565b820191906000526020600020905b81548152906001019060200180831161070057829003601f168201915b5050505050905084565b600260008281526020019081526020016000206000808201600090556001820160006107539190610b83565b6002820160006107639190610b83565b6003820160006107739190610b83565b50506000808154809291906001900391905055507f42a77abd0397855f875460bb511f41935bfa5f396b556d95717d8c2e08334aae816040516107b69190610e04565b60405180910390a150565b6040518060800160405280858152602001848152602001838152602001828152506002600086815260200190815260200160002060008201518160000155602082015181600101908051906020019061081b929190610b03565b506040820151816002019080519060200190610838929190610b03565b506060820151816003019080519060200190610855929190610b03565b509050507f29c9c79f57240563ee819e941228a194b90bb9ed36d4ee0b610e897d8712f5ae846040516108889190610e04565b60405180910390a150505050565b6000600154905090565b604051806080016040528085815260200184815260200183815260200182815250600360008681526020019081526020016000206000820151816000015560208201518160010190805190602001906108fa929190610b03565b506040820151816002019080519060200190610917929190610b03565b506060820151816003019080519060200190610934929190610b03565b509050507feddf0d3349a08c724995a7965a52c8ba572dce744afc51c5e5ae49d5b0fe206f846040516109679190610e04565b60405180910390a150505050565b604051806080016040528060005481526020018481526020018381526020018281525060026000805481526020019081526020016000206000820151816000015560208201518160010190805190602001906109d2929190610b03565b5060408201518160020190805190602001906109ef929190610b03565b506060820151816003019080519060200190610a0c929190610b03565b509050507f27412bb19840b11057dee7c7019767312555c4497d8d4c2383fa6b7791bf014b600054604051610a419190610e04565b60405180910390a16000808154809291906001019190505550505050565b60036000828152602001908152602001600020600080820160009055600182016000610a8b9190610b83565b600282016000610a9b9190610b83565b600382016000610aab9190610b83565b5050600160008154809291906001900391905055507fd3672ddf19ff3e806ac617ec14d53052e030326a0d8d07a4c06bc75e99eb4a2f81604051610aef9190610e04565b60405180910390a150565b60008054905090565b828054600181600116156101000203166002900490600052602060002090601f016020900481019282601f10610b4457805160ff1916838001178555610b72565b82800160010185558215610b72579182015b82811115610b71578251825591602001919060010190610b56565b5b509050610b7f9190610bcb565b5090565b50805460018160011615610100020316600290046000825580601f10610ba95750610bc8565b601f016020900490600052602060002090810190610bc79190610bcb565b5b50565b5b80821115610be4576000816000905550600101610bcc565b5090565b600082601f830112610bf957600080fd5b8135610c0c610c0782610ea6565b610e79565b91508082526020830160208301858383011115610c2857600080fd5b610c33838284610ef8565b50505092915050565b600081359050610c4b81610f4b565b92915050565b600080600060608486031215610c6657600080fd5b600084013567ffffffffffffffff811115610c8057600080fd5b610c8c86828701610be8565b935050602084013567ffffffffffffffff811115610ca957600080fd5b610cb586828701610be8565b925050604084013567ffffffffffffffff811115610cd257600080fd5b610cde86828701610be8565b9150509250925092565b600060208284031215610cfa57600080fd5b6000610d0884828501610c3c565b91505092915050565b60008060008060808587031215610d2757600080fd5b6000610d3587828801610c3c565b945050602085013567ffffffffffffffff811115610d5257600080fd5b610d5e87828801610be8565b935050604085013567ffffffffffffffff811115610d7b57600080fd5b610d8787828801610be8565b925050606085013567ffffffffffffffff811115610da457600080fd5b610db087828801610be8565b91505092959194509250565b6000610dc782610ed2565b610dd18185610edd565b9350610de1818560208601610f07565b610dea81610f3a565b840191505092915050565b610dfe81610eee565b82525050565b6000602082019050610e196000830184610df5565b92915050565b6000608082019050610e346000830187610df5565b8181036020830152610e468186610dbc565b90508181036040830152610e5a8185610dbc565b90508181036060830152610e6e8184610dbc565b905095945050505050565b6000604051905081810181811067ffffffffffffffff82111715610e9c57600080fd5b8060405250919050565b600067ffffffffffffffff821115610ebd57600080fd5b601f19601f8301169050602081019050919050565b600081519050919050565b600082825260208201905092915050565b6000819050919050565b82818337600083830152505050565b60005b83811015610f25578082015181840152602081019050610f0a565b83811115610f34576000848401525b50505050565b6000601f19601f8301169050919050565b610f5481610eee565b8114610f5f57600080fd5b5056fea2646970667358221220562b6e6d1b2dcfe4def40399dbdc15834a1cfd15851ab9a2ec07d6f7cf2610a164736f6c634300060c0033",
  "immutableReferences": {},
  "source": "// SPDX-License-Identifier: GPL-3.0\r\npragma experimental ABIEncoderV2;\r\n\r\ncontract Parking {\r\n    uint256 public UserCount;\r\n    uint256 public ParkingCount;\r\n\r\n    struct User {\r\n        uint256 id;\r\n        string name;\r\n        string password;\r\n        string phone;\r\n    }\r\n\r\n    struct Parking {\r\n        uint256 id;\r\n        string name;\r\n        string location;\r\n        string capacity; // Changed to string\r\n    }\r\n\r\n    mapping(uint256 => User) public users;\r\n    mapping(uint256 => Parking) public parkings;\r\n\r\n    constructor() public {\r\n        UserCount = 0;\r\n        ParkingCount = 0;\r\n    }\r\n\r\n    event UserAdded(uint256 _id);\r\n    event UserDeleted(uint256 _id);\r\n    event UserEdited(uint256 _id);\r\n    event ParkingAdded(uint256 _id);\r\n    event ParkingDeleted(uint256 _id);\r\n    event ParkingEdited(uint256 _id);\r\n\r\n    function getUserCount() public view returns (uint256) {\r\n        return UserCount;\r\n    }\r\n\r\n    function addUser(\r\n        string memory _name,\r\n        string memory _password,\r\n        string memory _phone\r\n    ) public {\r\n        users[UserCount] = User(\r\n            UserCount,\r\n            _name,\r\n            _password,\r\n            _phone\r\n        );\r\n        emit UserAdded(UserCount);\r\n        UserCount++;\r\n    }\r\n\r\n    function deleteUser(uint256 _id) public {\r\n        delete users[_id];\r\n        UserCount--;\r\n        emit UserDeleted(_id);\r\n    }\r\n\r\n    function editUser(\r\n        uint256 _id,\r\n        string memory _name,\r\n        string memory _password,\r\n        string memory _phone\r\n    ) public {\r\n        users[_id] = User(_id, _name, _password, _phone);\r\n        emit UserEdited(_id);\r\n    }\r\n\r\n    function getParkingCount() public view returns (uint256) {\r\n        return ParkingCount;\r\n    }\r\n\r\n    function addParking(\r\n        string memory _name,\r\n        string memory _location,\r\n        string memory _capacity // Changed to string\r\n    ) public {\r\n        parkings[ParkingCount] = Parking(\r\n            ParkingCount,\r\n            _name,\r\n            _location,\r\n            _capacity\r\n        );\r\n        emit ParkingAdded(ParkingCount);\r\n        ParkingCount++;\r\n    }\r\n\r\n    function deleteParking(uint256 _id) public {\r\n        delete parkings[_id];\r\n        ParkingCount--;\r\n        emit ParkingDeleted(_id);\r\n    }\r\n\r\n    function editParking(\r\n        uint256 _id,\r\n        string memory _name,\r\n        string memory _location,\r\n        string memory _capacity // Changed to string\r\n    ) public {\r\n        parkings[_id] = Parking(_id, _name, _location, _capacity);\r\n        emit ParkingEdited(_id);\r\n    }\r\n}\r\n",
  "sourcePath": "C:\\Users\\safac\\Videos\\SpotiPark-main\\contracts\\Parking.sol",
  "compiler": {
    "name": "solc",
    "version": "0.6.12+commit.27d51765.Emscripten.clang"
  },
  "schemaVersion": "3.4.16",
  "updatedAt": "2024-03-27T10:00:23.897Z",
  "networkType": "ethereum",
  "devdoc": {
    "kind": "dev",
    "methods": {},
    "version": 1
  },
  "userdoc": {
    "kind": "user",
    "methods": {},
    "version": 1
  }
}